{
  "contractName": "Contacts",
  "abi": [
    {
      "constant": true,
      "inputs": [],
      "name": "count",
      "outputs": [
        {
          "internalType": "uint256",
          "name": "",
          "type": "uint256"
        }
      ],
      "payable": false,
      "stateMutability": "view",
      "type": "function"
    }
  ],
  "bytecode": "0x608060405260008055348015601357600080fd5b506084806100226000396000f3fe6080604052348015600f57600080fd5b506004361060285760003560e01c806306661abd14602d575b600080fd5b60336049565b6040518082815260200191505060405180910390f35b6000548156fea265627a7a723158200c7591cfe864e85c2a62f88bdff9e52ecdcd55856fc6381b77f554a97179d42e64736f6c63430005100032",
  "source": "pragma solidity >=0.4.22 <0.9.0;\r\ncontract Contacts {\r\n    uint public count=0; // state variable\r\n}",
  "sourcePath": "D:\\blockchain\\contracts\\contracts\\contracts.sol",
  "compiler": {
    "name": "solc",
    "version": "0.5.16+commit.9c3226ce.Emscripten.clang"
  },
  "schemaVersion": "3.4.13",
  "updatedAt": "2023-06-01T06:16:42.948Z",
  "devdoc": {
    "methods": {}
  },
  "userdoc": {
    "methods": {}
  }
}